:020000040002F8
:10600000E8540020C1630200C9630200CB630200B0
:10601000CD630200CF630200D163020000000000E4
:10602000000000000000000000000000D363020038
:10603000D563020000000000D7630200D9630200AC
:1060400041670200DB630200DD6A0200DB630200DD
:10605000DB630200DB63020079650200DB630200A0
:10606000DB630200DB630200DB630200DB63020030
:10607000DB630200DB630200DB630200DB63020020
:10608000DB63020099670200DB630200DB6302004E
:10609000BD670200DB630200C1670200DB63020030
:1060A000DB630200DB630200DB630200DB630200F0
:1060B000DB630200DB630200000000000000000060
:1060C000DB630200DB630200DB630200DB630200D0
:1060D000DB630200DB630200DB6302000000000000
:1060E00000000000000000000000000000000000B0
:1060F00000000000000000000000000000000000A0
:10610000000000000000000000000000000000008F
:10611000000000000000000000000000000000007F
:10612000000000000000000000000000000000006F
:10613000000000000000000000000000000000005F
:10614000000000000000000000000000000000004F
:10615000000000000000000000000000000000003F
:10616000000000000000000000000000000000002F
:10617000000000000000000000000000000000001F
:10618000000000000000000000000000000000000F
:1061900000000000000000000000000000000000FF
:1061A00000000000000000000000000000000000EF
:1061B00000000000000000000000000000000000DF
:1061C00000000000000000000000000000000000CF
:1061D00000000000000000000000000000000000BF
:1061E00000000000000000000000000000000000AF
:1061F000000000000000000000000000000000009F
:10620000DFF80CD000F07AF90048004745AC0200F6
:10621000E854002030B450E8012F93B2C4892344DD
:106220008489A34228BF1B1B0489A34202BFBFF37A
:106230002F8F002007E0C3EA020340E80134002C5E
:10624000E9D14FF001000A6030BC704750E8012FDF
:10625000C2EA024240E801210029F7D1704730B478
:1062600050E8022F1FFAA2F3C488A34202BFBFF373
:106270002F8F00200DE0C48923448489A34228BFC6
:106280001B1BC2EA034340E80234002CE8D14FF064
:1062900001000A6030BC704750E8022FC2EA224277
:1062A00040E802210029F7D17047034653E8022F46
:1062B000D988B2EB324F4FF0000017BF92B241EADB
:1062C000014142EA014104E05A68B2EB324F08BF93
:1062D000012043E80212002AE8D1704730B4044696
:1062E00054E8000F0D4644E80053002BF8D1156028
:1062F00030BC704730B4044654E8000F40EA010552
:1063000044E80053002BF7D1156030BC704730B41F
:10631000044654E8000F00EA010544E80053002B4E
:10632000F7D1156030BC704730B4044654E8000F14
:1063300080EA010544E80053002BF7D1156030BC1A
:10634000704730B4044654E8000F00EB010544E800
:106350000053002BF7D1156030BC704730B40446B1
:1063600054E8000FA0EB010544E80053002BF7D1DF
:10637000156030BC704770B404464FF0000054E81C
:10638000006F0D68AE4207BF44E80023012044E8D7
:1063900000630E60002B1CBF0020F0E770BC70474C
:1063A00030B4044654E8000F88422CBF451A054615
:1063B00044E80053002BF5D1156030BC7047000055
:1063C0000648804706480047FEE7FEE7FEE7FEE78F
:1063D000FEE7FEE7FEE7FEE7FEE7FEE7C567020031
:1063E000016202002DE9F05F0546002092469B46BF
:1063F00088460646814640241BE0284641464746DB
:10640000224600F06BF853465A46C01A914110D309
:1064100011461846224600F016F82D1A67EB0108BF
:106420004F4622460120002100F00DF817EB00092D
:106430004E41201EA4F10104DFDC484631462A46C5
:106440004346BDE8F09F202A04DB203A00FA02F11F
:10645000002070479140C2F1200320FA03F3194352
:1064600090407047004870470011030040EA010364
:106470009B0703D009E008C9121F08C0042AFAD2FA
:1064800003E011F8013B00F8013B521EF9D27047BE
:10649000D2B201E000F8012B491EFBD27047002266
:1064A000F6E710B513460A4604461946FFF7F0FF13
:1064B000204610BD421C10F8011B0029FBD1801A98
:1064C000704730B504460020034600E05B1C934251
:1064D00003D2E05CCD5C401BF8D030BD202A04DB49
:1064E000203A21FA02F00021704721FA02F3D0404D
:1064F000C2F120029140084319467047064C074DEF
:1065000006E0E06840F0010394E807009847103483
:10651000AC42F6D3FFF778FE84250300A4250300E0
:1065200070B58C1810F8015B15F0070301D110F855
:10653000013B2A1106D110F8012B03E010F8016B82
:1065400001F8016B5B1EF9D12B0705D40023521E05
:106550000DD401F8013BFAE710F8013BCB1A921C6D
:1065600003E013F8015B01F8015B521EF9D5A1426B
:10657000D8D3002070BD00002DE9F04700268AB076
:10658000DFF85091B0464FF48075012437460696E7
:10659000284605F01BFC38B1D9F80403204203D08B
:1065A000284605F009FC26432D1D64007F1CADB272
:1065B000082FEDD34FF4BE74204605F007FC48B118
:1065C000204605F0F9FB46F0004606AA012100200E
:1065D00005F0DEFB404D16F0FF0F15D0012700241B
:1065E00037420DD009EB8401D1F81005D1F8101510
:1065F000C0F3042055F82420C1F3014102B19047B3
:106600007F00641C082CEBD3002E5FDA4FF0FF30C4
:10661000CDF8108054E0281910F8507F90F9000050
:1066200027F0C008401C3BD007A9404604F011FEEB
:1066300010B34FEA9719404602F020FA55F820703F
:106640001FB1B9F1030F03D006E0B9F1030F27D151
:1066500004A9404604F005FE4FF0A04101EB88007C
:10666000D0F8000706A9C0F3014A404604F0F1FD46
:1066700018B1BAF1020F03D012E0BAF1030F0FD133
:10668000B9F1030F08D1BAF1020F1DD00221404623
:1066900005F062FB761CF6B217B149464046B84792
:1066A000641C042CB7D3002E10D06A4601210020B0
:1066B00005F06EFB06990098884207D00690049872
:1066C000002634460790A6E70321E0E70AB0BDE8BC
:1066D000F087000000600040982B002000F01F02AF
:1066E000012191404009800000F1E020C0F88012B3
:1066F000704700F01F02012191404009800000F125
:10670000E020C0F80011704700F01F020121914005
:106710004009800000F1E020C0F8001270474907EE
:10672000090E002806DA00F00F0000F1E02080F8E2
:10673000141D704700F1E02080F80014704700003D
:1067400070B54FF48076304604F0C6FE114CB505A6
:1067500060B1304604F0C7FE0120C5F80803607937
:1067600020B9012060712168002088474FF48276AB
:10677000304604F0B1FE00280AD0304604F0B3FEE3
:106780000220C5F808032168BDE8704001200847D1
:1067900070BD00007423002007480021C0F840119C
:1067A000C0F84411C0F84811C0F84C11C0F80011ED
:1067B000C0F8041109F05ABC0010014009F0A4BB54
:1067C00006F090B8F0B5B4480023021D0178101D02
:1067D00001254FF0805406290BD11678360708D1D1
:1067E0000678C6F30316032E06D0042E04D0052E19
:1067F00002D0062907D00EE0B4F82463A74FC6F3F1
:1068000004263E6002E01678360704D10678C6F307
:106810000316032E02D0062904D00FE0A14FA04E8C
:106820007E670EE01678360708D10678C6F30316A1
:10683000032E06D0042E04D0052E02D0062907D040
:106840000EE0D4F84462984FC6F342363E6002E050
:106850001678360704D10678C6F30316032E02D045
:10686000062906D011E0914E376827F0807737600F
:106870000EE01678360708D10678C6F30316032E05
:1068800006D0042E04D0052E02D006290AD011E02D
:106890004FF08046C6F80C31C6F81031824E361FD4
:1068A000336002E01678360704D10678C6F3031683
:1068B000032E02D0062905D00CE07B4F0326643757
:1068C0003E600AE01678360704D10678C6F3031650
:1068D000032E02D006290DD014E0754F05263E6028
:1068E000734E78363560724E083633603F263F1D52
:1068F0003E6002E01678360704D10678C6F3031628
:10690000052E02D0062957D062E06A4E36686A4FDB
:106910003E60684E361D36683F1D3E60654E083647
:1069200036683F1D3E60634E0C3636683F1D3E6044
:10693000604E103636683F1D3E605E4E1436366837
:106940003F1D3E605B4E183636685B4F20373E6019
:10695000584E1C3636683F1D3E60564E203636680F
:106960003F1D3E60534E243636683F1D3E60514EFB
:10697000283636683F1D3E604E4E2C3636683F1D29
:106980003E604C4E303636684B4F40373E60494E85
:10699000343636683F1D3E60464E383636683F1DF9
:1069A0003E60444E3C3636683F1D3E60414E4036A8
:1069B00036683F1D3E6002E01678360708D106783B
:1069C000C6F30316032E06D0042E04D0052E02D0E3
:1069D000062907D019E0D4F85812384A01F04F01BF
:1069E000116002E0117809070FD10078C0F303109D
:1069F000032803D0042801D0052806D130480168B7
:106A0000C90702D06FF001010160D4F830010628F7
:106A100008D1D4F83401062804D12A48016841F489
:106A20008061016021487438016841F4700101609F
:106A3000BFF34F8FBFF36F8F4FF01021D1F80002DB
:106A4000002803DBD1F80402002821DA1E4A156071
:106A50001E480468002CFCD01524C1F800420568CB
:106A6000002DFCD0C1F8044201680029FCD013605D
:106A700001680029FCD0BFF34F8F0C48F038016843
:106A8000134A01F4E06111430160BFF34F8FFEE749
:106A9000114910480860F0BDE00F00F0403501409A
:106AA0000DF0ADBA00C007403C050040FCED00E031
:106AB000105600400404001020C50040E40E0040C1
:106AC000000400403C17004004E5014000E40140A0
:106AD0000400FA050090D003182200200148006845
:106AE000004700007C23002002E008C8121F08C1F4
:106AF000002AFAD170477047002001E001C1121F3F
:106B0000002AFBD1704700000121202803DA8140D0
:106B10000548014003E0402802DA2038814009B1ED
:106B20000120704700207047FC06FFBD2DE9F843A7
:106B3000804643F2020659B9694607F0D7F9B042D8
:106B400002D008B100F0B8F99DF80000800744D4E5
:106B50000021404607F006FA05003ED0112D3CD03A
:106B60001F482049401AC708022000EB07440D2D9A
:106B70000AD00B2D1DD0B5421FD11B4920464246DD
:106B8000BDE8F84305F026BB20464246174905F00C
:106B900021FB1321404676DF00281ED005F02AFF96
:106BA000024601B020464346BDE8F04310A105F07F
:106BB00018BB204642461C49E2E7284605F01AFF6A
:106BC0000246012000EB0740434618A105F009FBEF
:106BD0002846BDE8F84300F06FB9BDE8F88300002F
:106BE000EC250300B42503002C180300B81703009C
:106BF00073645F626C655F6761705F646973636F24
:106C00006E6E65637428292072657475726E656492
:106C1000202573206F6E20636F6E6E5F68616E64F7
:106C20006C652025642E000078180300417373659D
:106C30007274696E672E20706D5F636F6E6E5F7326
:106C4000656375726528292072657475726E656456
:106C5000202573206F6E20636F6E6E5F68616E64B7
:106C60006C652025642E000010B560B159B1027822
:106C70000B785208B2EB530F05D10622401C491C79
:106C8000FFF71FFC08B1002010BD012010BD8007D8
:106C900001D00020704701207047C3688B4206D89E
:106CA00011440069491E814201D80120704700202B
:106CB000704710B501220221002001F0BFFC08B18D
:106CC000072810D107220221012001F0B7FC08B1EA
:106CD000072808D100210A22084601F0AFFC08B1BC
:106CE000072800D1002010BD10B560B10B480C4939
:106CF000401AC008032101EB00400AA105F066FA22
:106D000007F08CFE03E003210A4800F040FD002854
:106D100003D0BDE8104000F0CFB810BD4C260300F2
:106D2000B4250300457261736520626F6E64732140
:106D300000000000F424002070B58CB015460E460B
:106D400000236C46C3F10F01415CE1545B1C102B26
:106D5000F8D30D2104F11000FFF7A1FB0020C0F1D2
:106D60000F02315C2244401C11740328F7D368469B
:106D700046DF0020C0F10F01214491F82010295472
:106D8000401C0328F6D30CB070BD022001F058BBA4
:106D90000149C97800F05ABF0023002070B50024D3
:106DA000064D06E06868012110F8340005F086FE03
:106DB000641C28788442F5D3002070BD882300200D
:106DC000F8B515460C460646052A01D20720F8BD3F
:106DD00005F070FF18B905F035FF0028F7D112490A
:106DE00000224E600C708D60C1E90422C1E90622C8
:106DF0000E4D0DE006EBC4002968009181788DF8F6
:106E0000011000780A4A694605F0AAFE0028DED182
:106E1000641EE4B2EED2BDE8F84004480021054A01
:106E2000001D00F055B8000088230020780D0300F5
:106E3000BD9D02002591020072B605F079FA00BFEF
:106E400005F0AAF80028FBD110481149401AC408DF
:106E5000012000EB04400FA105F0B8F910480068CC
:106E6000C00700D000BE022000EB04400DA105F0D9
:106E7000ADF9BFF34F8F0A48E43801680D4A01F4B9
:106E8000E06111430160BFF34F8FFEE74C26030022
:106E9000B4250300466174616C206572726F7200E4
:106EA000F0ED00E053797374656D2072657365745D
:106EB000000000000400FA050EB500210091CDE9A4
:106EC00001106A4644F20100FFF7B6FF0EBD000054
:106ED000074B9B7823B12AB120B10068037C1BB11A
:106EE00008207047072070474174426100207047B6
:106EF000642C002070B508F0DBF8104800240B214A
:106F0000047044700E4D817014206C602C706C7095
:106F1000FFF7E4FB06211420FFF701FC1420FFF724
:106F2000E8FB0848046006211120FFF7F8FB05483C
:106F3000001F0068A860002070BD0000642C0020C5
:106F4000A8230020081501402DE9FC47DFF87890C0
:106F500099F8023073B368B3052902D20720BDE85F
:106F6000FC87436933B3437C012B25D000270446BB
:106F70000025884616468DF80050684600F038F81F
:106F800001A809F017FBC8B1012101700F49446045
:106F90000968C0E90218C0E904769DF8040089F880
:106FA00001009DF8000000F047F81420FFF7ACFB4B
:106FB0002846D4E70820D2E70F46D8E704259DF8F5
:106FC000000000F039F8F3E7642C002004150140BC
:106FD0000649897839B130B1416921B10021017484
:106FE000022109F01FB8082070470000642C00201F
:106FF00030B5EFF3108172B60D4A9468012324B1C5
:107000000370002900D162B630BD93604FF0E023D9
:10701000D3F88051074C25401560C3F88041D3F860
:10702000844154605A17C3F8842100220270E8E7B3
:10703000702D0020FC06FFBD0B498A68002A11D084
:1070400000280FD1EFF3108072B60B684FF0E022EA
:10705000C2F800314B68C2F8043100228A6000286F
:1070600000D162B670470000702D00202DE9F0417C
:10707000064608680C46411C4FF0A0474FF001053A
:1070800006D005FA00F1C7F80815206804F050FE94
:107090006068411C02D0002104F038FE3168A0690C
:1070A000C1F82405607D227D31681043C1F86C056C
:1070B000D4E900123068C0F81425C0F80C15207D02
:1070C000012815D1A068411C02D0002104F01EFE49
:1070D000E068411C05D08540C7F80855E06804F019
:1070E00027FED4E902123068C0F80825C0F8101550
:1070F000BDE8F0812DE9F041064608680C46411CC8
:107100004FF0A0474FF0010506D005FA00F1C7F88F
:107110000815206804F016FE6068411C02D00021AA
:1071200004F0FDFD3168A069C1F82405607D217D72
:1071300032680843C2F86C05D4E900123068C0F820
:107140000C15C0F81425207D012815D1A068411C1C
:1071500002D0002104F0E3FDE068411C05D0854029
:10716000C7F80855E06804F0EDFDD4E90212306874
:10717000C0F80825C0F81015BDE8F08103F032BC56
:107180002DE9F047814605884A484FF000088AB04B
:1071900001784246284600F071FD99F80500400745
:1071A00001D4002176E005F58077B8B201AB012269
:1071B000072106F00FFB04003F48404A4FF0010151
:1071C000A0EB02004FEAD00001EB00460AD02046B7
:1071D00005F010FC024630462B46394905F001F80F
:1071E000214629E0284603F019F94FF6FF710446BD
:1071F00088422BD18A46029803F07AF8044650451B
:1072000010D00146284603F0E9F82846FFF7C0FDF4
:10721000E0B9284608F042F92846FFF7B9FD0028F2
:10722000BFD013E006F0A2FC0446504508D130461A
:1072300024A104F0CBFF0421284608F05DF9B0E753
:107240000146284603F0CAF84FF00108B8B22246BA
:10725000072106F037FB07001BD0862F1ED005F054
:10726000C9FB024630462B462349009404F0C1FF77
:107270003946284608F040F90021484606F09EF9B4
:10728000B8F1000F02D0204603F0B2F80AB0BDE812
:10729000F0870121484606F091F9F7E718221749CF
:1072A00003A8FFF7E3F8ADF80E5003A802F0CAF800
:1072B000EFE7000000230020F4250300B4250300BD
:1072C000301B0300436F756C64206E6F7420616C1B
:1072D0006C6F63617465206E657720706565725FA1
:1072E000696420666F7220696E636F6D696E6720D6
:1072F000626F6E642E000000DC1B0300100D0300A3
:1073000070B5044690B0087B0D468DF838002021FA
:1073100005A8FFF7C4F842F61920ADF814000120C3
:10732000ADF81800ADF81A000EA80790617C9DF822
:107330002100A21D61F3041040F002008DF821002D
:10734000A87B8DF82700687B8DF82500A08805A90B
:1073500001F0CCFB00281CD1A968E1B10FA801F015
:1073600029F8064614216846FFF799F842F60810F6
:10737000ADF80000E87B8DF806000FA8ADF80A60B4
:10738000ADF80E600490E08804F10E02694601F049
:1073900073FE10B070BD0020E081FAE710B50D4912
:1073A0000D4808F008F9C1B24FF6FE720B4800F024
:1073B00005FB00280DD008280BD0132809D0112870
:1073C00007D043F20141884203D0BDE81040FFF7E7
:1073D00073BD10BD4C27002028220020A4240020CB
:1073E0000A4601461046AEDF70472DE9FC470025EE
:1073F00017880646158090F82D001446894630B14E
:107400003A462146484600F063FC051E09D1B07893
:107410004FF00C0A18B32088C846001DB84202D9A4
:107420005046BDE8FC87684679DF0028F9D12088FE
:10743000032108F8001020881921401C80B2208008
:1074400008F800102088401C80B2208000EB080162
:10745000BDF8000008F0CEFF218808442080F078B5
:107460000222C8B1218896F9033001F1030C484685
:10747000BC45D5D8425421884FF0010C491C89B233
:10748000218000F801C02188491C89B2218009F8B7
:1074900001302088401C20807068B8B1218890F9A4
:1074A000003001F1030C4846BC45B9D8425421884C
:1074B0000A22491C89B2218042542188491C89B280
:1074C000218009F801302088401C2080308950B18B
:1074D000CDE900474B460622022106F1080009F0DB
:1074E00081F8051E9DD1308A50B1CDE900474B4649
:1074F0000722032106F1100009F074F8051E90D14F
:10750000308B50B1CDE900474B461522142106F1CE
:10751000180009F067F8051E83D1306A30B13B4688
:107520002246494601F061FC051EDBD1706A30B18C
:107530003B462246494603F065FC051ED2D196F82B
:107540002C0038B13B4622464946304608F006F941
:10755000051EC7D1307838B13B46224649463046F1
:1075600003F0DEFC051EBDD128465AE718B50446D7
:107570000020ADF8000013466A46204600F006F8E9
:10758000002802D0BDF80000204418BD70B588B1B5
:1075900082B10024158803E0065D641C3444A4B263
:1075A000A54203D8061976789E4201D08C42F3D3C7
:1075B0008C4201D3002070BDA11C1180005D401ED3
:1075C00080B270BD80F83010704700002DE9F047A0
:1075D0000D00044606D02CB195F87A00002601284B
:1075E00003D006E00E20BDE8F08795F8980001284A
:1075F00029D0D5F8A000042825D0D5F89C0004286F
:1076000021D04FF00109A6702C2205F17801201D30
:10761000FEF72CFF84F83060D5F8A4006063D5F83D
:10762000A800A0634FF6FF70A4F8480204F50D709F
:10763000C4F84402C4F84A62A4F84E6284F8506266
:10764000207810B104E00720CDE7FF2084F8540033
:1076500004F15501C4F8341294F82400EE274FF0D9
:107660001F0801281FD0A4F8388200BF04F50E724D
:107670002846FFF7BAFE0028B5D115F13C0F18D007
:1076800004F24311C4F83C1294F8240001280DD0F0
:10769000A4F8408204F5107205F13C00FFF7A5FE46
:1076A0000028A0D109E0A4F83872DFE7A4F84072FE
:1076B000F0E7C4F83C62A4F8406284F85190208B53
:1076C000A4F8480084F83C90266484F8506060690F
:1076D00060644D4604F13C02002104F1540072DF65
:1076E000002880D125707EE710B50288102A1BD0B3
:1076F000112A20D0262A1DD1007A0C46012801D05B
:10770000022817D1A0780521401CB0FBF1F201FB43
:107710001201204600F03BF800280BD0A16B002995
:1077200008D0BDE810400847C27B012A02D18088FA
:10773000A1F8480210BD0C46002184F8521280883E
:10774000B4F848128842F5D120790028F2D10121FD
:10775000DFE7704710B5044690F8540074DF01204D
:1077600084F85202002084F8540284F85000062164
:10777000204602F03BF8002808D1A178204600F00E
:1077800006F810B1A16B01B18847002010BD2DE9AA
:10779000F05F044600780F4698B1A7700025C4F842
:1077A0004A52A4F84E5284F85052A079012608B1EA
:1077B000012F09D0E07980B1012F05D0022F03D02D
:1077C0000BE00820BDE8F09F616B21B184F85162A5
:1077D0000820884701E084F8515204F24B21002030
:1077E0000A5C0AB1304603E0401C0628F8D30020AA
:1077F0004FF002084FF0030B012F06D0022F0CD0E0
:10780000032F0FD0042F15D110E0A17929B194F8DE
:10781000241011B908B130460DE0E17911B108B179
:10782000404608E0207A08B1584604E0607A08B182
:10783000042000E02846A070616B41B1032801D00C
:10784000042804D1607910B194F85202A0B184F8F0
:10785000535204F13C0018210746FEF720FE04F1C4
:107860002C0084F83C60814606F0ACFA58B194F8DC
:107870002C0084F8510008E084F8545284F85362D4
:1078800007208847E5E784F8516094F8240050B158
:10789000484606F097FA20B194F8280084F8520080
:1078A00001E084F8526084F85050A27804F24A2132
:1078B00004F50D794FF0060A052A62D2DFE802F0DE
:1078C0007A030F22410084F83160C4F84452C4E9BD
:1078D000101584F83C808020A4F8480053E084F818
:1078E000318094F82420384612B10722027001E05A
:1078F00080F800B0228A8281C4F844524160E16875
:10790000B96040E06069B860208BB88194F82400C9
:107910003D4610B184F83CA001E084F83C6020466C
:1079200008F024FE50B185F814800421204601F0AF
:107930005DFF30BB052184F8311020E084F831B0C0
:107940001DE0E069B860208CB88194F824003D46C1
:1079500010B184F83CA001E084F83C60204608F0B7
:1079600005FE48B185F814800421204601F03EFF51
:1079700038B984F831A002E0042084F83100C4F85A
:107980004492A07878B13A4604F15400D4F84412F5
:1079900072DF00287FF416AF94F8301094F854008A
:1079A00073DF0028F6D1616B11B194F8310088477C
:1079B000002007E784F83150F5E70000F7B594B0F0
:1079C000174605003CD0287C9DF8541000248842BE
:1079D00052D000264FF0010E0D9615A8ADF834E0F8
:1079E0000E90ADF83660E9880DAA4FF6FF70ACDF57
:1079F000040026D19DF854002874687CA0B30F962B
:107A0000109611961296E888ADF83C00BDF8360045
:107A1000ADF840000DA811900E981290A7F57F4088
:107A20008DF83EE0FE3805D039460FA8FFF7D8FCA8
:107A3000044621E0684600F09DF800256F460FE0FF
:107A40000E2017B0F0BD00BF07EB4506B08800F070
:107A5000DFF8022803D144B10FA9B088AEDF6D1C56
:107A60000098A842F0D807E005E0B1880FA8FFF71A
:107A7000B7FC0446F3E708242046E2E738B50D4694
:107A8000040018D0BDB12868206028796074FF20F8
:107A9000207401208DF8020041F60F00ADF80000BF
:107AA000221D69460120A8DF002803D1294620466F
:107AB000FFF726FC38BD0E2038BD38B5002924D08C
:107AC000002822D00288502A1FD10546487C0C4647
:107AD00000281AD0E9886289A81D914215D14189F0
:107AE000022912D1216800290FD00C3000F05EFC71
:107AF00008B1002000E001208DF80000A888ADF852
:107B00000200226869462046904738BD70B50400DF
:107B100012D001461C221448FEF7A8FC1248134D4F
:107B20000560206850B17ADF002806D1206801681E
:107B300029604068686005E00E2070BD0B487BDF5F
:107B40000028FAD108484FF6FF711438084A20F887
:107B5000041B0549343901600021FFF7B9F90028F9
:107B6000EBD0032070BD00000C2800205C22002018
:107B7000050503000149496801F018B928280020CB
:107B800010B5044600F09AF8002805D02146BDE85B
:107B90001040024803F0C1BA10BD00003828002090
:107BA00070B515460E46044608F0ECFC002809D0D6
:107BB000054800EB840080692A463146BDE87040E4
:107BC00001F040BE70BD00002828002010B504461A
:107BD00000F074F8002805D02146BDE810400248A6
:107BE00003F09BBA10BD00003C28002070B505468C
:107BF000002400F063F838B12946044803F08DFAF8
:107C000008B1022400E00124204670BD3428002081
:107C100070B50546002400F051F838B129460448F3
:107C200003F07BFA08B1022400E00124204670BD75
:107C30003028002010B51821034803F049FA18280D
:107C400000D0C0B210BD00002828002070B5054645
:107C50000C46084608F096FC60B1284600F02EF865
:107C600040B10548294600EB8400BDE8704018305B
:107C700003F053BA002070BD2828002070B50546D7
:107C800014460E46084608F07DFC002812D028460F
:107C900000F014F800280DD00748294600EB8600B4
:107CA00018301CB1BDE8704003F042BABDE8704026
:107CB00003F0F3B970BD000028280020142801D378
:107CC000002070470146014803F027BA2C28002005
:107CD0007CB5054608880C460930904201D90C2035
:107CE0007CBD68466DDF0028FAD1218808206854E1
:107CF00020881B21401C80B2208029542088401CF1
:107D000080B220802844DDF801100160BDF8051024
:107D100081802088801D80B220809DF80010490855
:107D200000D0012129542088401C208000207CBDE7
:107D30001FB5044601208DF8060041F60A00ADF893
:107D40000400494A01A90120A8DF00287DD122882A
:107D50005AB14548801C009094F83C3042F62920E6
:107D6000616800F093FE00287BD122895AB13E4819
:107D70000A30009094F83C3042F62420E16800F08C
:107D800085FE00286DD1228A5AB137481230009002
:107D900094F83C3042F62520616900F077FE002817
:107DA0005FD1228B5AB130481A30009094F83C30A1
:107DB00042F62720E16900F069FE002851D1228CAB
:107DC0005AB129482230009094F83C3042F62620DF
:107DD000616A00F05BFE002843D1228D5AB122482F
:107DE0002A30009094F83C3042F62820E16A00F0F6
:107DF0004DFE002835D1216B79B102A808F046F874
:107E0000194808223230009094F83C3002A942F61A
:107E1000232000F03BFE002823D1606B60B11249A3
:107E20003A3100910279016894F83C3042F62A20F8
:107E300000F02CFE002814D1A16B89B102A806F035
:107E40005CFE09484230009000E00AE094F83C30C3
:107E5000072202A942F6502000F018FE002800D1A7
:107E6000002004B010BD00001E230020F8B50188DA
:107E700000260446212933D016DC2048204A214D13
:107E8000A0EB02004FEAD0004FF0030202EB0040EB
:107E9000102911D0112906D11BA104F097F94FF632
:107EA000FF7068802E70F8BD3B2922D05629FAD188
:107EB0008088132176DF0DE017A104F087F90720F1
:107EC00000F0DEFB08B1FEF7F7FFA18869801548D6
:107ED00003F08AFA0028E6D0BDE8F840FEF7ECBFD0
:107EE0000096808869468FDF0028DCD0FEF7E4FF2B
:107EF000F8BD8088132176DFECE700004C260300F4
:107F0000B42503001C220020446973636F6E6E6504
:107F1000637465642E000000436F6E6E6563746564
:107F2000642E0000E824002010B51A4C0188606817
:107F300010290ED011292BD1401E606028D1FEF7E8
:107F4000B8FE002824D02168002921D0BDE81040C7
:107F50000847D0B900210122084600F06FFB08B1A4
:107F600007280FD107220221012000F067FB08B18A
:107F7000072807D104220221002000F05FFB20B176
:107F8000072802D0216801B188476068401C606002
:107F900010BD0000542200202DE9F04701883B4E1F
:107FA00040F2F3194FF6FF7510291BD011293ED06E
:107FB000122954D0502946D1C188F289841D91429A
:107FC00041D1618902293ED18688304602F0D4FA37
:107FD000050038D004F10C0000F0E8F9A8B32946F8
:107FE00030464EE0C17B8788044601292BD1A84644
:107FF000284602F0C1FA050017D02F800020287211
:10800000234843464A460168C5F80A104068C5F847
:108010000E0004F1100105F10A0002F06DFB687218
:10802000F08900280FD129462AE0042013E0808837
:1080300002F0A2FA040006D06068FEF7C9FF08B19A
:1080400007F03EFA2580BDE8F087FFE76868FEF795
:10805000BFFF0028F7D0BDE8F04707F031BA8788A6
:108060000646384602F088FA0400ECD02B464A4611
:1080700006F1080104F10A0002F03EFB607221469D
:108080003846BDE8F04700F0F7BE00000C2800209D
:108090005C2200202DE9F04F0746858802883D4884
:1080A000012197B08346102A09D0112A49D01A2AF3
:1080B0006CD1387AB1EB101F45D2012244E0354C27
:1080C000083CA068C0430B9061680BA803F049F816
:1080D0000B990CA800F06AFE2C220CA96846FEF74A
:1080E000C5F90026E946A04610E000BF09EB4600AE
:1080F0005FF00004B0F804A008EB84005146001DB6
:1081000002F0CBFF641C1D2CF6D3761C0098B04205
:10811000ECD8142D05D317B00420BDE8F04FFEF7BE
:10812000CBBE2946584603F003F8294608F104005F
:1081300002F0FEFFF87B012828D016482946001DD2
:1081400015E029461AE000220221B1EB101F01D2EE
:10815000012600E000260F49083901F11000041D36
:10816000294682B102F0E4FF36B12946204617B015
:10817000BDE8F04F02F0DCBF2946204617B0BDE84D
:10818000F04F02F08ABF02F088FFF5E717B0BDE8B4
:10819000F08F00003028002010B504460748007812
:1081A00000280AD0204602F015F8204607F0BAFB56
:1081B0002046BDE8104001F085BC10BD9022002093
:1081C00070B5044696B0086820604FF6FF70E082F4
:1081D000C879207601268DF8226041F609000D4607
:1081E000ADF82000221D08A93046A8DF00284BD199
:1081F00020216846FEF753F9202109A8FEF74FF920
:1082000042F61C20ADF8000011AA09A9204601F091
:1082100033FFADF806001420ADF8040011A8029059
:108220008DF80C609DF80D00A21D40F020008DF827
:108230000D0028798DF81300A088694600F056FCDF
:10824000002821D1A879F0B120216846FEF727F94E
:1082500042F61D20ADF800009DF80D00ADF8046059
:1082600040F002008DF80D006879ED1D8DF81100C9
:10827000ADF806600295A08804F10E02694600F090
:1082800035FC002800D1002016B070BDFEB50025D9
:108290000E4602210095ADF8001002A9ADF802507B
:1082A00001914189C08A6A46ADDF040043F2014072
:1082B00004D0844206D135700020FEBD02A800F033
:1082C00071F830702046FEBD30B50446C08A8BB0D0
:1082D000A0F57F42FF3A23D005AA204601F0CCFE4C
:1082E0000546ADF800000020019002900390049034
:1082F000E188ADF804100221ADF808008DF80610F1
:1083000005A8CDF80CD00490E08A01A9AEDF0028C2
:1083100004D1BDF80010A94200D00C200BB030BD34
:108320000820FBE738B50288102A12D0112A12D093
:10833000502A14D0532A0BD10A46C088C9888842D3
:1083400006D102208DF80000136869461046984750
:1083500038BD808801E04FF6FF70C88238BD0C46FA
:1083600030F8061F62899142F8D141890229F5D17E
:1083700021680029F2D00C3000F014F808B1002078
:1083800000E001208DF800002268694620469047F1
:1083900038BD70B504460D460846FEF78BF82080C0
:1083A000656070BD0078C0F340007047007800F051
:1083B000010070470A7802704978417002207047C6
:1083C0000149085C70470000900B03000649095CF6
:1083D0004FF0A040D0F81005C84010F0010000D0C8
:1083E000012080F001007047900B03002DE9FC4153
:1083F0000646C0074FF000050ED0104F00240122A2
:10840000385D009500231146019503F025FC641C9E
:10841000042CF4D300F046F8B0070DD5074E002425
:10842000361D0022305D032300951146019503F0AF
:1084300013FC641C042CF4D3BDE8FC818C0B0300FA
:1084400007490B5C4FF0A041D1F80425012098406A
:1084500020EA0203C1F808351040C1F80C05704746
:108460008C0B03000249085C012103F086BC00006C
:108470008C0B03000249085C002103F07EBC000065
:108480008C0B03000649095C4FF0A040D0F80405AE
:10849000C84010F0010000D0012080F001007047BA
:1084A0008C0B030010B500242046FFF7DBFF641C93
:1084B000042CF9D310BD10B500242046FFF7DAFFD5
:1084C000641C042CF9D310BD10B50246064B4FF0C6
:1084D000FF3000215C5C944201D1084610BD491C6C
:1084E0000429F7D310BD0000900B030070B50C4EAB
:1084F0000C004FF0000530600BD0012000F06AF84E
:1085000008B1022004E0002000F064F800B10B2064
:108510002070706810B9FEF7CCFB0546284670BD88
:108520005422002010B5002000F0E4F908B106281C
:1085300006D1012000F0DEF908B1062800D10020A4
:1085400010BD00002DE9F0470D468146FFF7BCFF46
:108550000446042836D2DFF874801B481C4EA8F16C
:108560000C0725B3012D0ED0022D2BD104EB4400B6
:1085700030444578002D25D0B968002922D02846FE
:10858000BDE8F047084704EB4401755C0E44717880
:1085900049B10E4A4FF40041093A8068FEF7D4FC15
:1085A00008B987F80390B17808F80410E2E780680A
:1085B000FEF70EFD04EB4401314418F804008D78F9
:1085C000A842D7D0BDE8F087940B030050220020CA
:1085D000AC270020042801D2FFF7F8BE0020704726
:1085E0000246144810B54088042A11D04FF6FF7196
:1085F000072A16D00A2A07D00E2A19D1884217D086
:10860000BDE8104007F064BCBDE8104007F076B943
:10861000132176DF0AE000280AD0BDE81040FEF7FB
:108620004BBC884204D10448FFF794F80828F2D1E3
:1086300010BD00001C220020F424002070B500238F
:10864000042810D20D4D00EB4004012A02D101296B
:108650000CD00022094E00EB4000304461B10129EA
:1086600006D0022906D00723184670BD0E30C2B2CC
:108670002A55F9E74270F7E78270F5E7AC2700204A
:10868000044A014600201279D20702D0084600F0C1
:108690004DB870474422002070B506461E4800249D
:1086A000C0E90161B00720D5002501221146284606
:1086B000FFF7C4FF6D1C0446042D02D2002CF4D039
:1086C00013E094B940F2666204211448FEF778FB87
:1086D00004000AD1FEF762FB040006D10F48104ADD
:1086E0000021001FFEF7F4FB0446F00712D0012022
:1086F000FFF77CFE74B909480A4A00210C38FEF7DE
:10870000E7FB040006D10548074A01210838FEF7B7
:10871000DFFB0446204670BD44220020A00B03006E
:10872000C18902008DA702008B6D02002DE9F05F68
:108730006E4C054600266078B34618B184F801B047
:1087400002F00CF86A4F4FF47A694FF4C87A4FF090
:108750000108182D69D2DFE805F00C1313384754CF
:10876000696E727B727BC58484848484B3B6B9BC21
:10877000C5C501F0F3FF3868FEF72AFC06465CE049
:108780000020FFF77FFE00284FF0000008D0FFF721
:1087900069FE022D02D14FF4E16008E0484606E090
:1087A000FFF768FE022D01D1C82000E05046410CC1
:1087B000C0034FF4FA72801841F100012570520095
:1087C0000023FDF70FFE01462AE00020FFF75AFEC6
:1087D00000284FF0000004D0FFF744FE4FF448702B
:1087E000E5E7FFF747FEDFE70020FFF74BFE002835
:1087F0004FF0000002D0FFF735FECFE7FFF73AFE5B
:10880000D4E70020FFF73EFE00284FF0000002D022
:10881000FFF728FE01E0FFF72DFE257041F69A11C3
:1088200000223868FEF790FB064646E00020FFF77E
:1088300007FE257008E0002051E025703DE084F837
:1088400001800120FFF7FCFD002240F6CD41E8E762
:1088500084F801800120FFF7F3FD00224FF48041EE
:10886000DFE77868FEF7B4FB0646D5F1110000D0CB
:108870002EB10220FFF7F6FD84F802B01DE00128BA
:1088800016D980B2C8214843C117C90341EA5041F3
:10889000C0034FF4FA72801841F100015200002326
:1088A000FDF7A0FD014600227868FEF74DFB064665
:1088B0000220FFF7DFFD84F802803046BDE8F09F1C
:1088C00001F04CFFB9E701F049FFB4E701F046FFC2
:1088D00004E001F043FF0020FFF7CCFD0120FFF78B
:1088E000C9FDAAE7FFF7E7FDA7E700004422002043
:1088F000940B0300012107F0DCBE00002DE9F843D2
:108900000546861C00208DF8000090460F464FF06B
:1089100001096846FEF76CFB1B4C20683860D4E9FF
:108920000001401AA16804F21C47081A0EE0012158
:10893000384602F010FC02F037F90146384602F0E2
:108940000AFCD4E90001401AA168081A401C8642BA
:10895000EDD8B8F1000F03D0052065F3891002E0CF
:10896000062065F39F50A2682168114004EB810145
:10897000C8602068304420609DF80000FEF75CFB72
:108980004846BDE8F8830000C030002030B482685B
:108990000468531C8360A154D0E901128A4202D3B7
:1089A00030BC02F01EBE30BC70470000034803C854
:1089B000814201D10120704700207047C030002063
:1089C00000780221FFF7BEBD1CB5044601F026FD6C
:1089D00000236A46092105F03FF8052805D1034820
:1089E000012241792046FFF749F91CBD642200208D
:1089F0001CB50021009142F6A621ADF8001001211E
:108A00008DF80210034901AA096801916946A0DFA7
:108A10001CBD0000C00B030005494FF0FF320828C1
:108A200041F8202002D3084480F848207047000015
:108A3000982B0020F0B54FF0FF3512B10023082627
:108A400001E008230C260C4C05E000BF54F823700D
:108A50007F1C04D05B1CB342F8D32846F0BD261817
:108A60005DB286F8305044F82310002AF5D1E118A1
:108A700081F84800F1E70000982B002002490844E3
:108A800090F9300070470000982B00202DE9F0414C
:108A900088B01E46DDF8388014460D00074602D126
:108AA0000020FEF709FA14B90020FEF705FA20218C
:108AB0006846FDF7F4FC9DF80D00ADF8044040F069
:108AC00002008DF80D000848ADF80070ADF80640C2
:108AD00002958DF8116042466946008800F006F85C
:108AE00008B0BDE8F08100001E2300202DE9F0430E
:108AF0008146887891B090460C4600B901208DF8E7
:108B00003E002088ADF83C0000250095607C694659
:108B100006F0DCFE6E46A07C711C06F0D7FEE07B02
:108B200000289DF8020002D040F0080001E020F08B
:108B300008008DF80200217C11B140F0100001E026
:108B400020F010008DF80200217B11B140F00100EF
:108B500001E020F001008DF80200217D09B1022121
:108B600000E0012161F342008DF802001C2102A8FF
:108B7000FDF795FC607BC10601D4800617D50E95E4
:108B80000EAFE07C791C06F0A1FE9DF83800079737
:108B900020F00F00401C20F0F00010308DF838005D
:108BA0009DF83A0020F00600801C8DF83A00607BAA
:108BB0008DF80800A07B8DF80900142109A8FDF7A5
:108BC0006EFC0FA8CDE90906A088ADF83000A068BA
:108BD00020B1E088ADF82C00A0680D90A06998B392
:108BE00001950088ADF81000A06901AD01A9408889
:108BF000ADF81200A069406806950390A069007B5B
:108C000006F064FEA069691C407B06F05FFEA06967
:108C1000807A00289DF8060002D040F0080001E0AC
:108C200020F008008DF80600A169C97A11B140F062
:108C3000100001E020F010008DF80600A169097A0B
:108C400019B140F0010002E00DE020F001008DF8C4
:108C50000600A169897B09B1022100E0012161F3CD
:108C600042008DF80600E06900B10590434609AA6C
:108C700002A94846AADF11B0BDE8F08370B50446EA
:108C80004FF6FF750A462846AC4209D14FF480746E
:108C90002146104602F01CFA80B2A0420BD070BDF3
:108CA000FF2CFCD82146104602F002FA90F0010F8A
:108CB00001D0204670BD284670BD000070B5084C3C
:108CC000050009D010342168002907D00868206009
:108CD000496828468847F6E70834F4E770BD000085
:108CE000842B0020054A012120B1012805D1917073
:108CF000FFF7E4BF51700020FAE77047842B002093
:108D00002DE9F05F26484168F1B3DFF898B00E68AE
:108D10008146DBF8004087688078E11B21F07F45C1
:108D2000ED1CB0B9DFF880804FF48030C8F8440300
:108D3000C8F804031120FDF7D1FC1120FDF7D9FC80
:108D40004FF0010AC8F800A02F2003F0AFFE89F809
:108D500002A0B54200D23546124BE8193C3320F050
:108D60007F401860DBF800105A46091B21F07F4154
:108D7000001B20F07F40C91C81420FD91068186089
:108D80002F2003F093FE00E004E0BDE8F05F112027
:108D9000FDF7BABCBDE8F05F06F08AB9BDE8F09F08
:108DA000A8230020041501400010014073B58CB0C9
:108DB0000646002000900D9880B100246D462146A3
:108DC0000DA802F0AAF930B1009805EB40008480AC
:108DD0000098401C0090641C142CF0D32C2269468F
:108DE0003046FDF743FB0EB070BD2DE9F04117880A
:108DF0000646B81D14460D46984202D90C20BDE81F
:108E0000F0813188072206290AD34FF4486C4FF6C7
:108E1000FF73614501D9994202D17088062801D2B9
:108E20001046ECE7604501D99842F9D1994203D048
:108E3000984201D08142F3D80520E85520881221BC
:108E4000401C80B2208029542088401C80B22080A1
:108E50004119308807F0CEFA2188084480B220807A
:108E60004119708807F0C6FA218808442080002044
:108E7000C5E7FEF721B8000038B54A7A0F4B62B15A
:108E800000220A725969002906D001228DF80020BB
:108E9000ADF802006846884738BD0A7A62B19B681F
:108EA0004C68024619462046FEF74EF80028F3D0DB
:108EB000BDE8384006F004BB5B68F1E70C280020F1
:108EC000F0B587B016460F4604461D4618220B49DA
:108ED0006846FDF7CBFA0A488DF80870ADF80240F5
:108EE000ADF80A608DF80C50017800222046FEF79C
:108EF000C5FE684600F0A6FA07B0F0BD280D0300D5
:108F000000230020FDF712BE70B588B00646002091
:108F100005900690ADF81410ADF81610019002906F
:108F200001AA05A9304690DF050021D003F062FDBB
:108F30000346114811493246401AC108012000EB8E
:108F4000014004460E4903F04CF9BDF8042012B963
:108F5000BDF8060028B1BDF80630204609A103F08F
:108F600040F9BDF808201AB12046164903F032F93D
:108F700008B0284670BD0000CC250300B4250300CE
:108F8000EC13030054686520726571756573746530
:108F9000642054582F5258207061636B6574206CA4
:108FA000656E67746820697320746F6F206C6F6ED4
:108FB000672062792025752F2575206F637465748D
:108FC000732E00003814030070B5044609480121CF
:108FD00002F0DCF8BFF35F8F0025002808D120469F
:108FE00001F05CFD002803D1BFF35F8F01480560ED
:108FF00070BD0000702200207FB50C4610B101202A
:1090000004B070BD2079002638B141F61D55012805
:109010001BD0022826D00F20F2E7022020710296F2
:109020000396E0680190694601A805F09DFF50B1E4
:1090300002988188E18000882081BDF800100298A4
:1090400006F010F8DCE70A20DAE70A4B6A4600214E
:10905000A01D05F045FF38B1064918398E61CE6173
:109060000A28CDD12846CBE702488188019805F02F
:10907000F9FFF5E7D4230020F0B587B00C4607468A
:109080001646142101A8FDF70AFAA07800B90120BC
:109090008DF81A002088ADF8180006A80190A07974
:1090A000694606F013FC6D46E079691C06F00EFC7B
:1090B000E07800289DF8020002D040F0080001E0AE
:1090C00020F008008DF80200217911B140F0100065
:1090D00001E020F010008DF80200617911B140F03C
:1090E000010001E020F001008DF80200217A09B1B1
:1090F000022100E0012161F342008DF80200029597
:109100006089ADF80C00A089ADF80E00E089ADF8DB
:10911000100020690590324601A93846ABDF07B040
:10912000F0BD00002DE9F0470025DFF88C803CE021
:109130006068002100EBC506012032789146FDF7FA
:1091400082F9D4E9062300EA020701EA030C57EA90
:109150000C0728D082438B434846C4E9062303F01A
:1091600067FD32788246914601200021FDF76BF9B8
:10917000D4E9042300EA020401EA03074A46504600
:109180000021FDF760F944404F403C430BD170781B
:10919000012801D0012100E00021726881EA0A0162
:1091A0000AB1484690476D1CEDB298F8000044465D
:1091B0008542BDD3BDE8F0878823002010B500218B
:1091C000024801F0E3FF80F3100010BDDC34002002
:1091D0000E4910B50A784C780023A24212D0521CD6
:1091E000D2B20A70022A00D10B70084A0B780C32F6
:1091F00052F8232002608868104420F07F40886085
:10920000012010BD0360002010BD0000A823002035
:1092100013460A460021FFF753BE00002DE9F8432C
:10922000104D0F4680461E4691466946286801F05B
:1092300008FF040014D01C21FDF731F90120207132
:10924000C4F81490380BC4F80080C4E90260694681
:10925000286801F017FF05F0AFFD0020BDE8F88396
:109260000420FBE7100E030010B503780022072B43
:1092700006D2DFE803F005040610202930000A704A
:1092800010BD01230B7003898B818388CB81C0685B
:1092900088600A7410BD02220A7002898A8182885D
:1092A000CA81C2688A60807D062802D000200874C6
:1092B00010BD0120FBE703220A70C2888A8102895F
:1092C000CA81C068886010BD04230B70C088888183
:1092D000CA818A6010BD0520087010BD70B5064DAA
:1092E0000646002455F8241009B130468847641C0E
:1092F000042CF7D370BD0000982D002030B5044633
:10930000006887B00D46806800281FD01821684685
:10931000FDF7C5F80195A0680590207910B10128E6
:1093200010D107E001208DF8000020690290E0686C
:10933000039005E002208DF80000E0680003029031
:1093400060690490206881686846884707B030BD2E
:109350002DE9F04186B016460C00804629D0112C2C
:1093600027D0082C25D018216846FDF798F8ADF8CD
:109370000280404601F052F8ADF804001B481C4939
:109380000027401AC5080D2C16D0204603F032FBEA
:109390000246012000EB05404346164902F021FF3A
:1093A00007208DF8000002948DF80C70684600F0DC
:1093B00057F806B0BDE8F081022000EB05404246B8
:1093C0000D4902F007FF03208DF8000026B1307828
:1093D000C00701D0012000E002208DF8080041F212
:1093E00001108DF80C70ADF80A00DFE7FC250300D2
:1093F000B4250300A81D0300981C030010B5044603
:10940000408801F00BF8A080024801682046BDE8C2
:10941000104008476C2200202DE9F0410746002447
:10942000064E074D05E000BF56F824103846884721
:10943000641CE8788442F7DBBDE8F081382B00201B
:109440009022002010B50446408800F0E7FFA0807D
:10945000024801682046BDE810400847DC0C0300C4
:109460000149096808470000680D030070B586B01F
:10947000044618216846FDF712F8A0890125A0F5D9
:109480004040ADF804002078324E062835D2DFE89F
:1094900000F0340303032E4EA08900F08BF930B99D
:1094A000E08943F6FE71A0F54040884225D8A07BB4
:1094B0008DF808002078032811D000208DF80900CD
:1094C000A0680390606860B109208DF800006068B2
:1094D00004908DF81450684604F010FA0DE0012055
:1094E000ECE708208DF800008DF81050F3E7A08914
:1094F00000F060F908B1E08930B17078002801D03F
:1095000004F046FB06B070BD606840B10B208DF8DA
:109510000000606802908DF80C507570DBE70A203F
:109520008DF80000BDF8040004F0D0FBF5E760689A
:1095300058B114208DF80000606802908DF80C502E
:109540004FF6FF70ADF80400C5E713208DF800005A
:10955000F6E700007C22002038B504460E4800786B
:10956000A8B1A4F57F40FF380FD0684605F056FB40
:1095700078B10521017001210171C480684605F0B0
:109580005BFB05F00BFC002038BD042038BD022039
:1095900038BD082038BD0000DC2300200C4808B589
:1095A000007888B1684605F039FB78B10621017072
:1095B000684605F041FB0748017809B101210173B4
:1095C00005F0ECFB002008BD022008BD082008BD06
:1095D000DC2300205C2E0020F0B587B01421684603
:1095E000FCF75DFF2B4C207818B16846FFF776FE3C
:1095F0004EE0201D01F0ACFDB8BB4FF010204169DA
:109600000004026940694B1C01D100FB02F12248B1
:1096100000220161A1F54051C160204902F076F9B4
:10962000002820D11F481C238C221D49006801F00E
:10963000F5FC03F0F5FE051E14D0022812D0002719
:109640000126062D12D005A805F0E8FA88B10670AB
:109650000C2D18D2DFE805F0170F170F1716171685
:10966000171113110B2007B0F0BD11E026706760D1
:10967000BBE70820F7E7077105E0032100E00221BE
:10968000017100E0067105A805F0D6FA05F086FB29
:109690000020E8E7DC23002070240020200E0300D7
:1096A000A82D0020880D030038B5040014D06946A9
:1096B00005F05AFCA0B1BDF8000000EB800109489C
:1096C00000EB8100C16849B1A17A39B1C168491E76
:1096D000C1600020A07238BD052038BD062038BD0D
:1096E0000A2038BD342E00201FB501A9684605F0B8
:1096F000F7FB04B010BD07B513460A4669460020C3
:1097000005F0EEFB0EBD07B513460A46002168467C
:1097100005F0E6FB0EBD20B119B10068086000201D
:109720007047052070470000F8B50D46040018D0BA
:10973000BDB1694605F018FCA8B1BDF800000B49A1
:1097400000EB800001EB800001210C30666801F025
:1097500002FD2E6060680C3068600120A07200205D
:10976000F8BD0520F8BD0A20F8BD0000342E002009
:1097700018B10323002207F0DFB805207047022349
:10978000002207F0D9B80000084910B50A69042A78
:109790000AD0074A096942F8210004480121103023
:1097A00001F0D9FC002010BD0C2010BDBC2300200E
:1097B000982D002043F6FE71A0F54040884201D864
:1097C000012070470020704710B504460078182823
:1097D00002D1FEF72FFA207010BD10B504460078B4
:1097E000182802D1FEF726FA207010BD70B50D467C
:1097F0000446B0F83812D0F834020122FDF7B6FE64
:1098000000B1057004F13C0204F50D7104F154003F
:1098100072DF70BD70B5134600220546112900D1D4
:109820000122074C33B12179FEF728FA0022617832
:10983000284600E06178BDE87040FEF71FBA0000DE
:1098400008230020F7B517460E0011D00098002518
:1098500060B100242146684601F05FFC18B1A0B257
:109860003946B0476D1C641C142CF3D32846FEBD4A
:109870000020FEBD406805F0F1B900000EB516A14C
:109880009DF8080020F00F00401C20F0F000103080
:109890008DF808000A2202A87CDF08B1FDF70CFB56
:1098A0004FF4407078DF08B1FDF706FB00204FF45D
:1098B000C87100900190ADF80400ADF800104A00A6
:1098C000ADF80220ADF8061068467ADF002801D016
:1098D000FDF7F2FA0EBD00004E6F726469635F48D7
:1098E0005453000070B508B1012070BD194C00251B
:1098F000207B08B1257301E000F0A0F8207808284B
:1099000026D2DFE800F02504080C10251420BDE85D
:10991000704000F021B8BDE8704000F07DB8BDE8AF
:10992000704000F05FB8BDE8704000F03BB8608860
:10993000084900EB8000283901EB80004068BDE851
:10994000704003F04DBD6560BDE8704003F056BD4A
:109950000F2070BD5C2E00201149F0B48A1C00203D
:109960000346A1F128050C18A67A4EB1A37200EBAC
:10997000800405EB8404E66816B9247C012C0AD027
:10998000401C80B20228EED30B704B804B60F0BCC1
:1099900041F61D5070471080F0BC00F03DB800004B
:1099A0005C2E00200C48418801EB8102A0F12801C7
:1099B00001EB8201CA6852B10521017007480221FA
:1099C0008180016800230122054801F003BF0422C1
:1099D00002704968F6E700005C2E0020E4230020B6
:1099E0007024002038B50A49084803240B684268EF
:1099F000898803EB810153880470DB1C00201B0461
:109A000000909B0B034802F039F838BD5C2E002013
:109A1000E423002070240020074910B54888091D60
:109A200005F0F2FA18B1BDE81040FFF7DBBFBDE862
:109A30001040FFF7B7BF00005C2E0020F0B51F48B4
:109A40001F490125067802248B88A0F12802082EE0
:109A500019D2DFE806F00418181B222F2F170189EE
:109A6000491C01810021418080F80C1001EB810329
:109A700012F8233043B100234418491C89B2A37261
:109A80000229F3D30570F0BD0123F5E7426852883F
:109A9000D21C1A448A800470F0BD46880D6806EB1B
:109AA000860602EB860256680E60556013818C8034
:109AB000062100E007210170F0BD00005C2E0020AF
:109AC000E42300202DE9F041044680882188394EA6
:109AD00086B00746352937D0502923D0522902D0E5
:109AE00054295DD102E000F07DFF59E0182232498F
:109AF0006846FCF7BBFCADF80270384600F08EFCFF
:109B0000ADF8040000F09CF9002231793846FEF7E8
:109B1000B5F80022F1783846FEF7B0F86846FFF74E
:109B20006DFC3DE0207B01283AD1A07A012837D195
:109B30002089A0F52451023932D10121384600F0A4
:109B4000A5FF06F0C7FC2BE04FF0000842467179F4
:109B5000FEF794F8E288B2F5857F1DD017481849C2
:109B6000401AC008022101EB004512B1284615A198
:109B70000BE06289012A03D0284621A102F02AFBCA
:109B8000A289012A04D028462CA102F023FB03E07D
:109B9000A07B00B1012080464146384606F04AF9D4
:109BA00000223549B078FDF7FBFF06B0BDE8F04173
:109BB00005F02EBD642200201C0C0300B425030018
:109BC000B4250300556E657870656374656420473D
:109BD00041545420737461747573207768696C659F
:109BE0002067657474696E67204341522063686121
:109BF000722076616C75653A203078257800000017
:109C00004D756C7469706C6520282564292043416A
:109C10005220636861726163746572697374696309
:109C20007320666F756E642C207573696E6720747F
:109C300068652066697273742E000000556E657841
:109C4000706563746564204341522063686172618A
:109C50006374657269737469632076616C756520DD
:109C60006C656E67746820282564292C2073746FD6
:109C7000726520302E0000007D71020070B5044630
:109C80000078002814D1608800F0ACFE6588284672
:109C900000F098F928B107480122C1782846FDF75D
:109CA000EDFF6088FEF790FEBDE8704006F012BC44
:109CB00070BD00006422002070B51A4C002525708C
:109CC000FDF7B8FF6070FDF7B5FFA070FDF7B2FFBC
:109CD000E070FDF7AFFF2071FDF7ACFF60716278B7
:109CE0000121182A12D0A278182A0FD0E278182A57
:109CF0000CD02279182A09D0182807D004F10C00BA
:109D00000560BFF35F8F2170002070BD0648074AD1
:109D1000801AC00801EB0040054902F057FA032001
:109D200070BD000064220020B4250300B4250300A8
:109D3000041103007CB504460078082837D1607A06
:109D400058BB207A1C4E4FF6FF75012811D007280A
:109D500002D008282BD121E0A08800F0A9FA0446FF
:109D6000A84224D0012100F091FE2046FEF72CFEEF
:109D70001DE0A0886A46012103F0E2FC68B9019861
:109D8000007850B1A08800F093FAA8420FD00122C9
:109D9000F178FDF773FF05F03BFC08E0F06801285F
:109DA00005D1BFF35F8F044900200C310860BDE886
:109DB0007C4006F08FBB0000642200202DE9F041BA
:109DC0008046024601200021FCF73DFB1A4F054664
:109DD0000E467868FDF7FCF800280CD1174CD4E942
:109DE000062110462A4001EA06031A4305D0A8437B
:109DF000B143C4E90601BDE8F081404602F018FF16
:109E000030B1D4E9040128433143C4E9040105E039
:109E1000D4E90410A943B043C4E90410D4E906010D
:109E200028433143C4E90601A1687868BDE8F041E0
:109E30000022FDF789B80000780D03008823002078
:109E40001CB5054AD2E90212CDE90012002269468A
:109E500003F03CFE1CBD0000380C030003484FF625
:109E6000FF71818001210170002070477422002061
:109E70002DE9FC41804600F0D1FA0024032501279A
:109E8000A0F57F412646FF3908D06A46082103F035
:109E900057FC18B90198841D8688056832462B4600
:109EA00021464046B1DF042804D0082804D00B28FE
:109EB00008D002E0112000E00020002F00D10B208C
:109EC000BDE8FC810027A80701D50125E6E734435A
:109ED00003D0002426460325E0E70648064942460B
:109EE000401AC008012101EB0040044902F072F958
:109EF000E5E70000BC250300B4250300741303004C
:109F00002DE9FC41804600F089FAA0F57F41064624
:109F1000FF390ED001252A466D1C0027ADB26B46D5
:109F20000821304603F056FC040006D0072C33D03D
:109F300033E043F20200BDE8FC81019903230A1DCE
:109F40000B604046891DB2DF040004D00C2C09D000
:109F5000052C09D009E032460821104603F0B2FC76
:109F600004461AE0012700E000240821304603F0EF
:109F70009FFC70B102F03EFD034609480949324694
:109F8000401AC008012101EB0040074902F029F9FD
:109F90000324002FBFD100E00C242046CBE70000B3
:109FA000BC250300B4250300F41203000448808894
:109FB000A0F57F41FF3901D005F034BB70470000A8
:109FC000742200200EB502A9019100F027FA6A461A
:109FD000012103F0B5FB08B100200EBD0198007807
:109FE0000EBD00002DE9F04107464FF6FF76104800
:109FF000B3DF78B102F0FEFC02460E480E49401A6B
:10A00000C008012101EB00400C4902F0E3F80320F5
:10A01000BDE8F081064C43F20305A41E3246618878
:10A020003846AFDFA842F3D16088401C6080F5E776
:10A0300076220020BC250300B4250300A8120300EB
:10A04000428800EB82020C328A4201D9022070471A
:10A050008188A1F57F42FF3A03D0008808B1002033
:10A06000704701207047884204D20068401C01D02C
:10A07000012070470020704730B50878002300B1F8
:10A0800001234C780CB143F0020320B143F00103EB
:10A090000C7B086901E00C79886864F31F605070DC
:10A0A000050A9570050CD570000E10714C780520CE
:10A0B00084B18C8A5471240A94718C7DD471CC7DC6
:10A0C00014720C7E54724C7E94728C7E43F00203A8
:10A0D000D4720C208C7824B1097F115443F004030E
:10A0E000401C137030BD000070B50025044605709B
:10A0F00001206070A0701549154805F05CFAA91E92
:10A100002171A060217300EBC0000521B0FBF1F0CC
:10A1100000F5486020610E4814384168616180682C
:10A12000A061042020770A48103881791B31C9B218
:10A1300081713B2908D93C3981714179491CC9B2E7
:10A1400041713B2900D9457170BD00005C2700209A
:10A15000302200203EB5027802230C46B3EB520FAA
:10A1600017D1B0F80110ADF80010C1788DF80210C9
:10A170008188ADF8041080798DF8060002AA01A943
:10A180002046FCF7D9FD032202A96846FCF799F99D
:10A1900008B100203EBD01203EBD000070B50D4657
:10A1A0000446142810D2FDF789FD68B1084904EB74
:10A1B000840001EB4000D0F802102960C188A9801A
:10A1C000007AA871002070BD43F2020070BD00004B
:10A1D000A028002070B5018892B0102961D1011D1E
:10A1E0002C226846FCF742F99DF804004FF6FF76F2
:10A1F00003213446B1EB500F2BD003F025FC9DF822
:10A2000004006D4640080ED001280CD0022820D151
:10A2100018E00D99281D1131FCF726FD18B100BF7B
:10A22000BDF82C4015E00CAA0BA9072003F0E0FBB9
:10A230000028EED10DE00D99281D491CFFF78AFF7B
:10A240000028EDD10CAA0BA9072003F0D1FB0028B0
:10A25000F1D1BDF80000B44200EB8001124820F8B3
:10A26000114000EB41000199C0F80210BDF8081040
:10A27000C1809DF80A10017213D0BDF80000ADF83E
:10A280002E000020ADF83040084E8DF82C000BADAC
:10A29000044600BF56F8241028468847641C022C48
:10A2A000F8D312B070BD0000A02800204C0C0300B1
:10A2B0002DE9F0414FF6FF760546B04213D00B4F23
:10A2C000002400BF04EB840037F81000A84206D138
:10A2D0002046FDF7F3FC10B12046BDE8F081641C78
:10A2E000A4B2142CEED33046F7E70000A0280020DB
:10A2F0003EB50C46054603F0A7FB0BE0BDF8000099
:10A30000A04207D02846029900F00EF810B1BDF81F
:10A3100000003EBD01AA6946072003F069FB002842
:10A32000ECD14FF6FF703EBD2DE9F0410C460546DD
:10A3300000F1110701F111061022491C401CFCF725
:10A34000C0F848B9681C00F0F9F928B1601C00F0A9
:10A35000F5F908B1012400E0002431463846FCF745
:10A3600083FC3B780222B2EB530F0CD00321B1EBFC
:10A37000530F08D03378B2EB530F04D0B1EB530F27
:10A3800001D0012100E00021084201D18C4302D01C
:10A390000120BDE8F0810020FBE7018811B94218D7
:10A3A00092780AB101207047491C0829F7D3002090
:10A3B000704710B50C460346FFF7EFFF00280AD0A0
:10A3C00018882188884205D10822A11C981CFCF716
:10A3D00078F808B1002010BD012010BD142804D267
:10A3E000024A00EB800022F810107047A0280020DD
:10A3F00070B50546FFF75CFF0446284603F0A4F954
:10A40000002808D1142C06D2034B04EB84024FF62B
:10A41000FF7123F8121070BDA028002010B504466B
:10A42000142808D2FDF74AFC28B1044904EB840043
:10A4300031F8100010BD4FF6FF7010BDA0280020AD
:10A440003EB5044603F000FB0EE00199204646317C
:10A45000FFF7AFFF28B9019920462A31FFF7A9FF7E
:10A4600010B1BDF808003EBD6A4602A9072003F0FE
:10A47000BFFA0028E9D14FF6FF703EBD10B50A497A
:10A4800041600A4800F064FE58B902F03DFA0749FD
:10A490001C238C22087404488C39001F006800F0CB
:10A4A000BDFD002010BD0000140E0300082F002089
:10A4B0002DE9F0412D4F002518B17D600120BDE848
:10A4C000F0810879012258B1294E01280CD0274C7F
:10A4D0004FF002080834022821D0032842D128E096
:10A4E0000A7102F08BFF3BE05FF0000000EB80019F
:10A4F00016F82110022908D0401C80B20228F5D39A
:10A500003A707D6041F61D50D9E700EB800006F8F7
:10A51000205006EB8000406802F062FF20E00D71E1
:10A52000A4F80480002301221248216801F052F9A6
:10A5300016E00D71206802F053FF0D4923682831A1
:10A54000498801EB810206EB8201D1F804C0C4F80E
:10A5500000C04B60A3880B81A4F8048006F8225049
:10A560000028ACD07D600E20A9E70000DC2300208D
:10A57000342E0020702400200146034802888A42BD
:10A5800000D0002070470000F82700202DE9FC5F74
:10A590000E008346DDE90C47C6F10000984692465E
:10A5A000814600D40846012503E000BF90FBFAF085
:10A5B0006D1C5045FADAA84500D9454624B1002E55
:10A5C00001DB780700D5641EB80702D5B8F1000F8B
:10A5D0000AD0F80708D13CB1A54205D2202158463F
:10A5E000641EFEF7D3F9F6E7002E02DA4E462D215F
:10A5F00002E0780703D52B215846FEF7C7F907F08C
:10A60000030002280BD1B8F1000F08D13CB1A542DC
:10A6100005D230215846641EFEF7B8F9F6E7CDE9B9
:10A620000047434652463146584605F0F9FEBDE81C
:10A63000FC9F000070B50D46044600684FF4887119
:10A6400002F0F8F94FF49071206802F0F3F94FF43A
:10A650009271206802F0EEF94FF4A271206802F0C6
:10A66000E9F920681249C0F804132068690740F32B
:10A670000730090E002806DA00F00F0000F1E02094
:10A6800080F8141D03E000F1E02080F80014206839
:10A69000012140F3073000F01F0291404009800083
:10A6A00000F1E020C0F88012C0F8001170BD000079
:10A6B00010030200024600201268530713D502F06F
:10A6C0000300012802D002280CD105E0C2F3831058
:10A6D0000B68801C184404E00223086803EB9252C4
:10A6E00010440860012070470248007A002800D01A
:10A6F00001207047082F0020F0B58488A5189442E7
:10A7000000D82246A41AC288D6189A4200D8134606
:10A71000D21A4B880788BB420CD34088834209D8A1
:10A720008888A04206D3A84204D8C888904201D3A2
:10A73000B04201D90020F0BD0120F0BD0021425CF3
:10A740000AB101207047491C1029F8D30020704736
:10A75000800701D000207047012070470A4810B5DB
:10A76000807860B1002401E0022C06D02046FDF77D
:10A7700079FE641C042CF7D310BD0324F6E7BDE872
:10A780001040FDF78FBE00004422002003480179ED
:10A79000C90702D00078FDF7C9BF704744220020E6
:10A7A0001721018041800021017141711B218171BC
:10A7B000C17170472DE9FE4F2E4F984692460D000D
:10A7C000814601D000260DE0684600F0FDFB6A4698
:10A7D0000021484602F00CFF3878009E10B99DF821
:10A7E000090098B152463146484605F0FDF9044645
:10A7F000014600224846FFF70DF80D2C37D008DC43
:10A80000A4B3082C33D00B2C09D130E00520BDE8CF
:10A81000FE8F112C1ED0A4F54050023827D02046C0
:10A8200002F0E8F80246144814494B46401AC008A2
:10A83000012101EB0040124901F0D3FC5FF0030558
:10A84000B8F1000F04D0324621464846FEF780FD9D
:10A850002846DCE72A46F9784846FDF70FFA5246C3
:10A86000B9784846FDF70AFA0025E9E7FFE72546EB
:10A87000E6E7000008230020FC250300B4250300C0
:10A88000501D030070B50E460C4915460446097864
:10A89000FDF7DCF900280FD0204602F04FFE00281B
:10A8A0002A463146204603D0BDE8704002F04CBE37
:10A8B000BDE87040FEF7ACBC70BD00000023002076
:10A8C00070B5094D0646A978FDF7C0F90446E97848
:10A8D0003046FDF7BBF9014622463046BDE87040E0
:10A8E0000123FFF767BF0000082300202DE9F04790
:10A8F000394E002780463D46DFF8E090D6F804A0A8
:10A9000057E003D00446D0F81C8035E099F80020C9
:10A9100002EB4201521CD2B289F8002009EBC101BE
:10A9200099F80230091D9A4201D189F8005048680F
:10A930000A780446012A12D0022A02D0032A3BD107
:10A9400008E005F03FFB00B10127257434E00574F1
:10A95000C06900E070680028F9D170602CE0207CAC
:10A9600050BB88686060C868A0600869E06048699A
:10A97000A061F07800B165606268B168184B501A48
:10A9800020F07F40984202D2A168084406E0881A6D
:10A99000A16820F07F40814202D9081A206000E0BF
:10A9A000256065600120A56020742046E56105F002
:10A9B000EBFAB8F10000A4D199F8001099F8010061
:10A9C0008142A3D117B97168514502D00120BDE879
:10A9D000F0870020FBE70000A8230020642C002063
:10A9E000FFFF7F00F0B587B00546002718216846B5
:10A9F000FBF755FDA5F57F40ADF80250FF3825D097
:10AA00002846FFF735FA040022D01B481B49401A9C
:10AA1000C6080B2C22D0112C1ED0A4F540500238B1
:10AA20000ED0204601F0E6FF0246012000EB064072
:10AA30002B46134901F0D5FB2146284604F048FD7A
:10AA400010483A4681782846FDF718F907B0F0BD5E
:10AA50000E208DF800000BE00127F1E70F208DF8A4
:10AA60000000022000EB06402A46074901F0B2FB35
:10AA70006846FEF7C3FCE3E7B4250300B4250300F2
:10AA8000D411030064220020281203000A46024960
:10AA90004978FDF7F3B80000642200202DE9F04169
:10AAA000002786B080463E46FFF72AFA040022D0EF
:10AAB000112C22D01B481C49401AC508862C1ED0D8
:10AAC000A4F5405002380ED0204601F093FF024614
:10AAD000012000EB0540434614A101F082FB214612
:10AAE000404604F0F5FC39464046FFF7CFFF06B07C
:10AAF0003046BDE8F0810126F5E70127F3E718228B
:10AB00001A496846FBF7B2FC0220ADF8028000EB60
:10AB10000540424616A101F05DFB6846FEF76EFC5B
:10AB2000E1E70000B4250300B42503006773636DFB
:10AB30005F6C6F63616C5F64625F63616368655FD4
:10AB400075706461746528292072657475726E650C
:10AB50006420257320666F7220636F6E6E5F68617C
:10AB60006E646C653A20256400000000EC0B030065
:10AB7000466C6173682066756C6C2E20436F756C33
:10AB800064206E6F742073746F72652064617461E9
:10AB900020666F7220636F6E6E5F68616E646C65B5
:10ABA0003A202564000000002DE9FF4100262348DB
:10ABB00000F0CBFA2148001F074600F0C6FA204CEF
:10ABC00060680090A56800E000986946284004EBA2
:10ABD00080000C30FFF76EFD0028F5D101AA009926
:10ABE00001EA050304EB8303491CDB6842F82030CB
:10ABF000401C00910228F2D3019800F003000128C4
:10AC00000BD0022810D10198032101EB905000993C
:10AC1000BDF80A6001EB900005E00198BDF80A60FC
:10AC2000C0F3831008440090384600F08BFA08B156
:10AC30000098606004B03046BDE8F081D834002050
:10AC4000C0300020ACB04FF40041002001F03AFBCE
:10AC500008B1FCF731F901F091F9FCF74BF908B1B3
:10AC6000FCF72AF9544A01215448FCF731F908B19C
:10AC7000FCF722F952490320FDF70EFD08B1FCF75D
:10AC80001BF969460020FDF731FC08B1FCF714F907
:10AC90009DF8000002287DD05FF0000601F028FC3E
:10ACA00008B1FCF709F901F0E3FD08B1FCF704F97C
:10ACB000002469460120009401F06AFC08B1FCF709
:10ACC000FBF8684601F0E4FC08B1FCF7F5F8FEF784
:10ACD000D5FD00213B4800F0CEFA08B1FCF7ECF8B6
:10ACE000AC216846FBF7DBFB02208DF80000012059
:10ACF0008DF80200062103258DF87C008DF80310E5
:10AD0000ADF81050282030492290059144F250604F
:10AD100023902E4829902B4869462030FCF756FC9A
:10AD200008B1FCF7C9F8274801212030FCF74AFC9C
:10AD300004F058FD04F0F4FB1C216846FBF7AFFB60
:10AD40004FF42030CDE900404FF4702002902048AD
:10AD5000059020488DF80C500690ADF80E408DF807
:10AD600010406846FCF7D2FE08B1FCF7A5F802F0E7
:10AD7000F3FF19481949401AC00805EB004018A113
:10AD800001F024FA0D4800224FF480310068FCF7EE
:10AD9000DBF800E00DE008B1FCF78EF83046FBF779
:10ADA000A3FF00BF01F0F8F80028FBD101F0B4FBCD
:10ADB000F8E7012672E700009D730200880B03008C
:10ADC000E1850200D42400203822002059D102005D
:10ADD000ADD10200738E02004C260300B42503009F
:10ADE0004865616C746820546865726D6F6D657438
:10ADF0006572206578616D706C6520737461727422
:10AE000065642E0070B5144682880E46054620887B
:10AE1000111D0144921C994201D8FE2A01D90C202F
:10AE200070BD521C32542088FF21401C80B220800B
:10AE300031542088401C80B220808119288805F078
:10AE4000D9FA2188084480B22080AA8842B1A96832
:10AE500041B13044FBF70AFB2088A98808442080D0
:10AE6000002070BD072070BD2DE9F047C5881E1D6C
:10AE7000B6FBF5F78946B6FBF5F1044605FB176C02
:10AE8000407916686843DDF820A0F718001F874254
:10AE900000D9C61A166001E02468491E0029FBD1BA
:10AEA000A5EB0C078846B74216D818E004EB0C0057
:10AEB000001D09EB0803BAF1000F3A4602D0014623
:10AEC000184600E01946FBF7D1FA2468F61B4FF04C
:10AED000000CB844B54201D9374600E02F46002E99
:10AEE000E4D1BDE8F087000030B5024651B101F071
:10AEF00007FA0021074C08E034F821301568AB420E
:10AF000002D11160002030BD491C8142F4D30520DC
:10AF100030BD000000000000BFF35F8F00F0FDB8FF
:10AF2000F8B50F46017814460546012901D1687825
:10AF300030B12088821C9A4232D8012902D006E022
:10AF40000720F8BD69780144891C994228D8181A4D
:10AF5000801E86B2ADF800602188B81C084469469E
:10AF60007DDF0028EDD12978022904D06878BDF86A
:10AF70000020904205D3BDF80000B04201D809205E
:10AF80000AE00820012905D16978B14202D8ADF85C
:10AF9000001001E0ADF80060BDF80010FE2901D9F5
:10AFA0000C20F8BD2288491CB9542188491C89B25B
:10AFB000218078542088401C2080BDF8001008446F
:10AFC00020800020F8BD0000034A00219268C0E9FB
:10AFD00000218160704700000823002070B54FF603
:10AFE000FF750E46A84201D1002000E0401C84B24B
:10AFF00008E02146304600F090F808B1204670BDC8
:10B00000641CA4B2FF2CF4D9284670BD10B5FBF720
:10B010004CF908B1002010BD112010BD10B531B1A0
:10B02000B2FBF3F403FB14241CB1092010BD0E2065
:10B0300010BD01600021416081608281C3810846AA
:10B0400010BD70B50C460546FBF7E4F8002802D0A9
:10B0500021882868084470BD10B50A8849888A424A
:10B0600003D1FBF719F9012010BD002010BD70B508
:10B070000C460546FBF7F3F8002802D061882868E3
:10B08000084470BD10B50A8849888A4203D1FBF78D
:10B09000DDF8012010BD002010BD01F01F030122CA
:10B0A0009A40D243490900EB8100114600F059B89B
:10B0B0000A4601F01F030121994010B552090C46C0
:10B0C00000EB820000F05DF8204000D0012010BDB0
:10B0D0002DE9F04180460D460024481E012101EB78
:10B0E000501716E058F82400C04390FAA0F0B0FAC8
:10B0F00080F020280CD200EB4416AE4208D2314634
:10B100004046FFF7D5FF0028ECD13046BDE8F0817E
:10B11000641CA742E6D82846F8E74A0950F82200FE
:10B1200001F01F0201219140084000D0012070472A
:10B1300001F01F0301229A40490900EB81001146EA
:10B1400000F029B8002100F017B8012100F023B861
:10B15000012100F016B808B56A46FBF7F2F800982E
:10B1600008BD08B56A46FBF7D2F8009808BD08B5D7
:10B170006A46FBF7E6F808BD08B56A46FBF7C7F86C
:10B1800008BD08B56A46FBF7B5F808BD08B56A46BC
:10B19000FBF7A4F808BD08B56A46FBF7ABF80098C2
:10B1A00008BD08B56A46FBF7D9F8009808BD38B560
:10B1B000044600258DF800506846FBF719FF21680A
:10B1C0006268086890420ED9401E08600178238AA0
:10B1D000E26801FB0325227A2168101AC0B20A79BD
:10B1E000824200D208719DF80000FBF725FF284637
:10B1F00038BD38B5054600208DF800000C4668467D
:10B20000FBF7F6FEE868298A201AB0FBF1F12A68FC
:10B210001068431C136001709DF80000FBF70CFFE1
:10B2200038BD10B530B1017A42680368891AC9B2D5
:10B230001A6006E00E2010BD03681A68541C1C60DA
:10B240001170491EC9B2F7D2006800210171084689
:10B2500010BDC20800F007030120895C9840084037
:10B26000704710B5C20800F00703885C01249C40B9
:10B270002043885410BD10B560B10161172120F83A
:10B28000021B20F8021B1B2100F8021BFFF788FAA3
:10B29000002010BD0E2010BDF0B5858893B00C467F
:10B2A000002D39D1018800263F4F24293BD006DCF0
:10B2B000102909D011290CD0232958D14FE03A295F
:10B2C0000BD0552953D129E00146204601F07CFFDF
:10B2D0004DE0A01DFFF764FA49E02246408934F8AA
:10B2E000061F814200D808466080172800D2172028
:10B2F0006080106970B1607960B1D7E90001CDE973
:10B300000301ADF80E506088ADF81000136903A971
:10B31000104698476671267113B0F0BD014620466D
:10B3200001F0A6FF23E0011D2C2206A8FBF79EF8E2
:10B33000BDF81800BDF81C2004EBC0014A73226957
:10B34000AAB1D7E90423CDE90423ADF81200487B64
:10B350008DF814002269204604A9904707E0017A7D
:10B36000207B884200D201462846FDF7CDFDA07A19
:10B370000028D1D0E1882846A5DF012580B1112819
:10B38000CAD001F037FB02460848094913B0401AF9
:10B39000C00805EB0040BDE8F04006A100F01ABF70
:10B3A000A672E572B8E70000540C0300CC25030038
:10B3B000B425030073645F626C655F6761747463D6
:10B3C0005F65786368616E67655F6D74755F7265F0
:10B3D000717565737428292072657475726E656461
:10B3E0002025732E0000000020B10278DE2A03D051
:10B3F000082070470E20704741800020704760B1E0
:10B4000059B10278DE2A0AD009684160DE21017054
:10B410004FF6FF714180002070470E2070470820D2
:10B4200070477FB5054600294DD0002D4BD00878D8
:10B430000C46DE2847D1A8886188884202D1204680
:10B4400005F0A6F82888012825D002283BD011282D
:10B450003AD0512837D135F8040F6188884232D16B
:10B46000A978A81C02292ED1017A042903D0062923
:10B4700001D0052927D10021009102228DF800205A
:10B4800001914FF4C07202910391ADF80420007A4B
:10B4900005280FD010E0297A2046012913D1A98868
:10B4A000428891420FD10121017204B0BDE8704081
:10B4B00005F06EB8ADF8041028886946B0DF0028A2
:10B4C00001D0616888477FBDA88861888842FAD129
:10B4D0004FF6FF7060807FBD00F18040006800285B
:10B4E00000D00120704708B500F1804000210160C4
:10B4F0000068009008BD000070B50B4C207808B1C2
:10B5000085250FE00020A06060602061E0600748B2
:10B5100001F0AEFA054601F0F7F908B901F090FA2A
:10B5200001202070284670BD842B0020E58C02008D
:10B5300038B500258DF800506846FBF759FD074CDB
:10B54000E068401EE060E06810B901F0A1FAA57063
:10B550009DF80000FBF770FD38BD0000842B002033
:10B56000F0B505460478154889B0164640F8242001
:10B57000124A0869121DA2F1080742F82400487F08
:10B58000385520226846FAF771FF04942878385C11
:10B5900048B10EB10A4A00E000226946281D01F0B8
:10B5A000F7FC09B0F0BD0EB1064A00E00022694682
:10B5B00005F10C0001F0BEFBF3E700006C23002056
:10B5C000D10203001D0103000FB408B5039900293F
:10B5D00004D004AA00926A4600F00FF801B05DF8AA
:10B5E00014FB10B582680446002A05D0D4E9040390
:10B5F000216898470020A06010BD2DE9FC479146C6
:10B600000C00804676D014F8011B39B125290ED0E4
:10B610004046FDF7BBF920780028F4D198F80C00DB
:10B62000002867D04046BDE8FC47FFF7DABF00209E
:10B63000012221782B291BD02D2902D0302908D1B5
:10B6400002E040F0010001E040F00200641C002A2A
:10B65000EFD100252A290ED02178A1F130020A2A43
:10B6600011D205EB850201EB4205641C303DF1E788
:10B6700040F00400EAE7D9F800100B1DC9F80030CB
:10B680000968641C0D44217800232E290BD114F87D
:10B69000011FA1F130020A2A05D203EB830201EB5C
:10B6A0004203303BF3E76C290DD068290BD06929A0
:10B6B00021D00BDC252918D0582931D063290ED090
:10B6C000642915D117E014F8011FECE7702969D03F
:10B6D000732932D075291BD0782909D120E0D9F8F7
:10B6E0000000011DC9F8001001784046FDF74EF931
:10B6F000641C90E76CE0D9F800100A1DC9F800201E
:10B700000968CDE900500A224046FEF73FFFEFE707
:10B71000D9F800100A1DC9F8002009680A2206E0BD
:10B72000D9F800100A1DC9F8002009681022CDE9D7
:10B730000050404604F074FEDAE7D9F80010002704
:10B740000A1DC9F800200E68C00705D112E0404666
:10B75000761C7F1CFDF71AF931780029F7D104E037
:10B76000202140466D1EFDF711F9BD42C0D9002DC4
:10B77000F6D1BDE74EB13046FAF79CFE074604E02D
:10B78000202140466D1EFDF701F9BD4206D9002D6E
:10B79000F6D103E04046761CFDF7F8F83178002931
:10B7A000F8D1A5E7D9F80000011DC9F80010056817
:10B7B00030214046FDF7EAF878214046FDF7E6F8EB
:10B7C00008200021CDE90001034610222946B0E7F8
:10B7D000BDE8FC872DE9F843884605002C482D4933
:10B7E0009946A0EB01004FEAD0004FF00101164648
:10B7F00001EB004424D0286800282CD0002E34D03F
:10B80000696840464FF010070A68511E11EA080F98
:10B8100011D1014672432846FBF73FFA00282ED08B
:10B8200028684B463246046901B041462846A44682
:10B83000BDE8F04360472046174B18A2009722E06E
:10B840000E2000902046144B1EA220A100F0D1FC37
:10B850000E20BDE8F8830820009020460E4B26A25B
:10B860001AA100F0C6FC0820F3E70920009020464A
:10B87000094B24A215A100F0BCFC0920E9E7064B06
:10B88000214A2046009711A100F0B3FC1020E0E708
:10B890003C260300B4250300FB0D030061646472C1
:10B8A0005F69735F706167655F616C69676E65642E
:10B8B00028705F66732C20706167655F61646472D5
:10B8C00029000000705F667300000000257320638C
:10B8D0006865636B206661696C656420696E20250C
:10B8E00073282920776974682076616C756520302B
:10B8F0007825782E00000000705F66732D3E705F23
:10B90000617069006C656E00141E030038B5030099
:10B910001148124D4FF00E04A0EB05004FEAD00085
:10B920004FF0010505EB004009D061B119600C68CA
:10B9300001B0A446BDE83040114618466047084BA8
:10B9400008A2009402E0064B08A2009409A100F0AE
:10B9500050FC0E2038BD00003C260300B425030037
:10B96000B00D0300705F667300000000705F6170CF
:10B9700069000000257320636865636B2066616958
:10B980006C656420696E20257328292077697468A6
:10B990002076616C756520307825782E00000000D7
:10B9A000044801214174007A08B100207047012049
:10B9B00070470000082F0020012801D0032808D17B
:10B9C0000449002201284A7400D00020087403F0C2
:10B9D00095B97047082F002070B50246022801D0A3
:10B9E000032A45D1234C207A002841D0012833D0A6
:10B9F000022831D120480023022A006802D0032AFD
:10BA00002AD11BE0E360017911B1012924D10DE0B5
:10BA1000D0E90565711B4FF48056B14200D3314621
:10BA2000294481614569A9420ED015E00169491C8C
:10BA30000161426991420FD1237213E0E168491C10
:10BA4000E160082908D9E3602372022A0AD00D2197
:10BA5000FDF754FC03F0F8F8607C28B1BDE87040B5
:10BA600000F058BF0021F3E7BDE8704003F046B98D
:10BA700070BD0000082F0020EC2300202DE9F84FB6
:10BA800090468A463A493B4A0500A1EB02014FEA3B
:10BA9000D1014FF00102DDF828901E464FF00E0054
:10BAA00002EB01441AD0B8F1000F1CD0286800281E
:10BAB00022D00920002E29D069684968B6FBF1F22E
:10BAC00001FB1261002926D000902B4B20462BA2AF
:10BAD00035A100F08EFB0920BDE8F88F00902046CC
